{
  "_format": "hh-sol-artifact-1",
  "contractName": "LoveNFT",
  "sourceName": "contracts/LoveNFT.sol",
  "abi": [
    {
      "inputs": [
        {
          "internalType": "address",
          "name": "_owner",
          "type": "address"
        }
      ],
      "stateMutability": "nonpayable",
      "type": "constructor"
    },
    {
      "anonymous": false,
      "inputs": [
        {
          "indexed": true,
          "internalType": "address",
          "name": "owner",
          "type": "address"
        },
        {
          "indexed": true,
          "internalType": "address",
          "name": "approved",
          "type": "address"
        },
        {
          "indexed": true,
          "internalType": "uint256",
          "name": "tokenId",
          "type": "uint256"
        }
      ],
      "name": "Approval",
      "type": "event"
    },
    {
      "anonymous": false,
      "inputs": [
        {
          "indexed": true,
          "internalType": "address",
          "name": "owner",
          "type": "address"
        },
        {
          "indexed": true,
          "internalType": "address",
          "name": "operator",
          "type": "address"
        },
        {
          "indexed": false,
          "internalType": "bool",
          "name": "approved",
          "type": "bool"
        }
      ],
      "name": "ApprovalForAll",
      "type": "event"
    },
    {
      "anonymous": false,
      "inputs": [
        {
          "indexed": false,
          "internalType": "uint256",
          "name": "_fromTokenId",
          "type": "uint256"
        },
        {
          "indexed": false,
          "internalType": "uint256",
          "name": "_toTokenId",
          "type": "uint256"
        }
      ],
      "name": "BatchMetadataUpdate",
      "type": "event"
    },
    {
      "anonymous": false,
      "inputs": [
        {
          "indexed": false,
          "internalType": "uint256",
          "name": "_tokenId",
          "type": "uint256"
        }
      ],
      "name": "MetadataUpdate",
      "type": "event"
    },
    {
      "anonymous": false,
      "inputs": [
        {
          "indexed": true,
          "internalType": "address",
          "name": "previousOwner",
          "type": "address"
        },
        {
          "indexed": true,
          "internalType": "address",
          "name": "newOwner",
          "type": "address"
        }
      ],
      "name": "OwnershipTransferred",
      "type": "event"
    },
    {
      "anonymous": false,
      "inputs": [
        {
          "indexed": false,
          "internalType": "uint96",
          "name": "newValue",
          "type": "uint96"
        },
        {
          "indexed": false,
          "internalType": "uint256",
          "name": "tokenId",
          "type": "uint256"
        }
      ],
      "name": "RoyaltyUpdated",
      "type": "event"
    },
    {
      "anonymous": false,
      "inputs": [
        {
          "indexed": true,
          "internalType": "address",
          "name": "from",
          "type": "address"
        },
        {
          "indexed": true,
          "internalType": "address",
          "name": "to",
          "type": "address"
        },
        {
          "indexed": true,
          "internalType": "uint256",
          "name": "tokenId",
          "type": "uint256"
        }
      ],
      "name": "Transfer",
      "type": "event"
    },
    {
      "inputs": [
        {
          "internalType": "address",
          "name": "to",
          "type": "address"
        },
        {
          "internalType": "uint256",
          "name": "tokenId",
          "type": "uint256"
        }
      ],
      "name": "approve",
      "outputs": [],
      "stateMutability": "nonpayable",
      "type": "function"
    },
    {
      "inputs": [
        {
          "internalType": "address",
          "name": "owner",
          "type": "address"
        }
      ],
      "name": "balanceOf",
      "outputs": [
        {
          "internalType": "uint256",
          "name": "",
          "type": "uint256"
        }
      ],
      "stateMutability": "view",
      "type": "function"
    },
    {
      "inputs": [],
      "name": "baseTokenURIOpenSea",
      "outputs": [
        {
          "internalType": "string",
          "name": "",
          "type": "string"
        }
      ],
      "stateMutability": "pure",
      "type": "function"
    },
    {
      "inputs": [
        {
          "internalType": "address",
          "name": "to",
          "type": "address"
        },
        {
          "internalType": "string[]",
          "name": "URIs",
          "type": "string[]"
        }
      ],
      "name": "bulkMint",
      "outputs": [],
      "stateMutability": "nonpayable",
      "type": "function"
    },
    {
      "inputs": [
        {
          "internalType": "uint256",
          "name": "tokenId",
          "type": "uint256"
        }
      ],
      "name": "burn",
      "outputs": [],
      "stateMutability": "nonpayable",
      "type": "function"
    },
    {
      "inputs": [],
      "name": "contractURI",
      "outputs": [
        {
          "internalType": "string",
          "name": "",
          "type": "string"
        }
      ],
      "stateMutability": "view",
      "type": "function"
    },
    {
      "inputs": [
        {
          "internalType": "uint256",
          "name": "tokenId",
          "type": "uint256"
        }
      ],
      "name": "getApproved",
      "outputs": [
        {
          "internalType": "address",
          "name": "",
          "type": "address"
        }
      ],
      "stateMutability": "view",
      "type": "function"
    },
    {
      "inputs": [
        {
          "internalType": "uint256",
          "name": "_tokenId",
          "type": "uint256"
        }
      ],
      "name": "getRoyaltyFee",
      "outputs": [
        {
          "internalType": "uint256",
          "name": "",
          "type": "uint256"
        }
      ],
      "stateMutability": "view",
      "type": "function"
    },
    {
      "inputs": [
        {
          "internalType": "address",
          "name": "owner",
          "type": "address"
        },
        {
          "internalType": "address",
          "name": "operator",
          "type": "address"
        }
      ],
      "name": "isApprovedForAll",
      "outputs": [
        {
          "internalType": "bool",
          "name": "",
          "type": "bool"
        }
      ],
      "stateMutability": "view",
      "type": "function"
    },
    {
      "inputs": [],
      "name": "name",
      "outputs": [
        {
          "internalType": "string",
          "name": "",
          "type": "string"
        }
      ],
      "stateMutability": "view",
      "type": "function"
    },
    {
      "inputs": [],
      "name": "owner",
      "outputs": [
        {
          "internalType": "address",
          "name": "",
          "type": "address"
        }
      ],
      "stateMutability": "view",
      "type": "function"
    },
    {
      "inputs": [
        {
          "internalType": "uint256",
          "name": "tokenId",
          "type": "uint256"
        }
      ],
      "name": "ownerOf",
      "outputs": [
        {
          "internalType": "address",
          "name": "",
          "type": "address"
        }
      ],
      "stateMutability": "view",
      "type": "function"
    },
    {
      "inputs": [],
      "name": "renounceOwnership",
      "outputs": [],
      "stateMutability": "nonpayable",
      "type": "function"
    },
    {
      "inputs": [
        {
          "internalType": "uint256",
          "name": "tokenId",
          "type": "uint256"
        },
        {
          "internalType": "uint256",
          "name": "salePrice",
          "type": "uint256"
        }
      ],
      "name": "royaltyInfo",
      "outputs": [
        {
          "internalType": "address",
          "name": "",
          "type": "address"
        },
        {
          "internalType": "uint256",
          "name": "",
          "type": "uint256"
        }
      ],
      "stateMutability": "view",
      "type": "function"
    },
    {
      "inputs": [
        {
          "internalType": "address",
          "name": "to",
          "type": "address"
        },
        {
          "internalType": "string",
          "name": "uri",
          "type": "string"
        }
      ],
      "name": "safeMint",
      "outputs": [],
      "stateMutability": "nonpayable",
      "type": "function"
    },
    {
      "inputs": [
        {
          "internalType": "address",
          "name": "from",
          "type": "address"
        },
        {
          "internalType": "address",
          "name": "to",
          "type": "address"
        },
        {
          "internalType": "uint256",
          "name": "tokenId",
          "type": "uint256"
        }
      ],
      "name": "safeTransferFrom",
      "outputs": [],
      "stateMutability": "nonpayable",
      "type": "function"
    },
    {
      "inputs": [
        {
          "internalType": "address",
          "name": "from",
          "type": "address"
        },
        {
          "internalType": "address",
          "name": "to",
          "type": "address"
        },
        {
          "internalType": "uint256",
          "name": "tokenId",
          "type": "uint256"
        },
        {
          "internalType": "bytes",
          "name": "data",
          "type": "bytes"
        }
      ],
      "name": "safeTransferFrom",
      "outputs": [],
      "stateMutability": "nonpayable",
      "type": "function"
    },
    {
      "inputs": [
        {
          "internalType": "address",
          "name": "operator",
          "type": "address"
        },
        {
          "internalType": "bool",
          "name": "approved",
          "type": "bool"
        }
      ],
      "name": "setApprovalForAll",
      "outputs": [],
      "stateMutability": "nonpayable",
      "type": "function"
    },
    {
      "inputs": [
        {
          "internalType": "bytes4",
          "name": "interfaceId",
          "type": "bytes4"
        }
      ],
      "name": "supportsInterface",
      "outputs": [
        {
          "internalType": "bool",
          "name": "",
          "type": "bool"
        }
      ],
      "stateMutability": "view",
      "type": "function"
    },
    {
      "inputs": [],
      "name": "symbol",
      "outputs": [
        {
          "internalType": "string",
          "name": "",
          "type": "string"
        }
      ],
      "stateMutability": "view",
      "type": "function"
    },
    {
      "inputs": [
        {
          "internalType": "uint256",
          "name": "tokenId",
          "type": "uint256"
        }
      ],
      "name": "tokenURI",
      "outputs": [
        {
          "internalType": "string",
          "name": "",
          "type": "string"
        }
      ],
      "stateMutability": "view",
      "type": "function"
    },
    {
      "inputs": [
        {
          "internalType": "uint256",
          "name": "tokenId",
          "type": "uint256"
        }
      ],
      "name": "tokenURIOpenSea",
      "outputs": [
        {
          "internalType": "string",
          "name": "",
          "type": "string"
        }
      ],
      "stateMutability": "view",
      "type": "function"
    },
    {
      "inputs": [],
      "name": "totalSupply",
      "outputs": [
        {
          "internalType": "uint256",
          "name": "",
          "type": "uint256"
        }
      ],
      "stateMutability": "view",
      "type": "function"
    },
    {
      "inputs": [
        {
          "internalType": "address",
          "name": "from",
          "type": "address"
        },
        {
          "internalType": "address",
          "name": "to",
          "type": "address"
        },
        {
          "internalType": "uint256",
          "name": "tokenId",
          "type": "uint256"
        }
      ],
      "name": "transferFrom",
      "outputs": [],
      "stateMutability": "nonpayable",
      "type": "function"
    },
    {
      "inputs": [
        {
          "internalType": "address",
          "name": "newOwner",
          "type": "address"
        }
      ],
      "name": "transferOwnership",
      "outputs": [],
      "stateMutability": "nonpayable",
      "type": "function"
    },
    {
      "inputs": [
        {
          "internalType": "uint96",
          "name": "_royaltyFee",
          "type": "uint96"
        },
        {
          "internalType": "uint256",
          "name": "_tokenId",
          "type": "uint256"
        }
      ],
      "name": "updateRoyaltyFee",
      "outputs": [],
      "stateMutability": "nonpayable",
      "type": "function"
    }
  ],
  "bytecode": "0x60806040526000600a556000600b553480156200001b57600080fd5b5060405162002516380380620025168339810160408190526200003e9162000203565b6040518060400160405280600681526020016511dbdbd9125160d21b8152506040518060400160405280600781526020016624b22a37b5b2b760c91b81525081600290816200008e9190620002da565b5060036200009d8282620002da565b505050620000ba620000b4620000cc60201b60201c565b620000d0565b620000c58162000122565b50620003a6565b3390565b600980546001600160a01b038381166001600160a01b0319831681179093556040519116919082907f8be0079c531659141344cd1fd0a4f28419497f9722a3daafe3b4186f6b6457e090600090a35050565b6200012c620001a5565b6001600160a01b038116620001975760405162461bcd60e51b815260206004820152602660248201527f4f776e61626c653a206e6577206f776e657220697320746865207a65726f206160448201526564647265737360d01b60648201526084015b60405180910390fd5b620001a281620000d0565b50565b6009546001600160a01b03163314620002015760405162461bcd60e51b815260206004820181905260248201527f4f776e61626c653a2063616c6c6572206973206e6f7420746865206f776e657260448201526064016200018e565b565b6000602082840312156200021657600080fd5b81516001600160a01b03811681146200022e57600080fd5b9392505050565b634e487b7160e01b600052604160045260246000fd5b600181811c908216806200026057607f821691505b6020821081036200028157634e487b7160e01b600052602260045260246000fd5b50919050565b601f821115620002d557600081815260208120601f850160051c81016020861015620002b05750805b601f850160051c820191505b81811015620002d157828155600101620002bc565b5050505b505050565b81516001600160401b03811115620002f657620002f662000235565b6200030e816200030784546200024b565b8462000287565b602080601f8311600181146200034657600084156200032d5750858301515b600019600386901b1c1916600185901b178555620002d1565b600085815260208120601f198616915b82811015620003775788860151825594840194600190910190840162000356565b5085821015620003965787850151600019600388901b60f8161c191681555b5050505050600190811b01905550565b61216080620003b66000396000f3fe608060405234801561001057600080fd5b506004361061018e5760003560e01c806370a08231116100de578063b88d4fde11610097578063d204c45e11610071578063d204c45e14610365578063e8a3d48514610378578063e985e9c514610380578063f2fde38b1461039357600080fd5b8063b88d4fde1461032c578063ba1f72f21461033f578063c87b56dd1461035257600080fd5b806370a08231146102d2578063715018a6146102e55780638da5cb5b146102ed57806395d89b41146102fe5780639e4c014114610306578063a22cb4651461031957600080fd5b80631ab6c5da1161014b5780632a55205a116101255780632a55205a1461026757806342842e0e1461029957806342966c68146102ac5780636352211e146102bf57600080fd5b80631ab6c5da1461023957806323b872dd1461024c57806329abb0a01461025f57600080fd5b806301ffc9a71461019357806306fdde03146101bb578063081812fc146101d0578063095ea7b3146101fb57806313f7eafb1461021057806318160ddd14610223575b600080fd5b6101a66101a1366004611983565b6103a6565b60405190151581526020015b60405180910390f35b6101c36103b7565b6040516101b291906119f0565b6101e36101de366004611a03565b610449565b6040516001600160a01b0390911681526020016101b2565b61020e610209366004611a38565b610470565b005b61020e61021e366004611a62565b61058a565b61022b61069d565b6040519081526020016101b2565b6101c3610247366004611a03565b6106b4565b61020e61025a366004611a8c565b6106ee565b6101c3610720565b61027a610275366004611ac8565b610740565b604080516001600160a01b0390931683526020830191909152016101b2565b61020e6102a7366004611a8c565b6107ed565b61020e6102ba366004611a03565b610808565b6101e36102cd366004611a03565b610839565b61022b6102e0366004611aea565b610899565b61020e61091f565b6009546001600160a01b03166101e3565b6101c3610933565b61022b610314366004611a03565b610942565b61020e610327366004611b05565b610958565b61020e61033a366004611bcd565b610967565b61020e61034d366004611c49565b61099f565b6101c3610360366004611a03565b610aa2565b61020e610373366004611ccf565b610aad565b6101c3610ae6565b6101a661038e366004611d31565b610af5565b61020e6103a1366004611aea565b610b23565b60006103b182610b99565b92915050565b6060600280546103c690611d64565b80601f01602080910402602001604051908101604052809291908181526020018280546103f290611d64565b801561043f5780601f106104145761010080835404028352916020019161043f565b820191906000526020600020905b81548152906001019060200180831161042257829003601f168201915b5050505050905090565b600061045482610ba4565b506000908152600660205260409020546001600160a01b031690565b600061047b82610839565b9050806001600160a01b0316836001600160a01b0316036104ed5760405162461bcd60e51b815260206004820152602160248201527f4552433732313a20617070726f76616c20746f2063757272656e74206f776e656044820152603960f91b60648201526084015b60405180910390fd5b336001600160a01b038216148061050957506105098133610af5565b61057b5760405162461bcd60e51b815260206004820152603d60248201527f4552433732313a20617070726f76652063616c6c6572206973206e6f7420746f60448201527f6b656e206f776e6572206f7220617070726f76656420666f7220616c6c00000060648201526084016104e4565b6105858383610c03565b505050565b610592610c71565b60146001600160601b03831611156105e25760405162461bcd60e51b8152602060048201526013602482015272696e76616c696420726f79616c74792066656560681b60448201526064016104e4565b6000806105fa8360645b6001600160601b0316610740565b9150915080846001600160601b0316111561064a5760405162461bcd60e51b815260206004820152601060248201526f0dccaee40cccaca40e8dede40d0d2ced60831b60448201526064016104e4565b610655838386610ccb565b604080516001600160601b0386168152602081018590527fb165969abb8140a403ba07dc3887ce79597b2a0357836ec38d1a7ad6249a60a2910160405180910390a150505050565b6000600b54600a546106af9190611db4565b905090565b60606106be610720565b6106c783610aa2565b6040516020016106d8929190611dc7565b6040516020818303038152906040529050919050565b6106f9335b82610dd8565b6107155760405162461bcd60e51b81526004016104e490611df6565b610585838383610e36565b60606040518060600160405280603981526020016120f260399139905090565b60008281526001602090815260408083208151808301909252546001600160a01b038116808352600160a01b9091046001600160601b03169282019290925282916107b55750604080518082019091526000546001600160a01b0381168252600160a01b90046001600160601b031660208201525b60208101516000906064906107d3906001600160601b031687611e43565b6107dd9190611e5a565b91519350909150505b9250929050565b61058583838360405180602001604052806000815250610967565b610811336106f3565b61082d5760405162461bcd60e51b81526004016104e490611df6565b61083681610f9a565b50565b6000818152600460205260408120546001600160a01b0316806103b15760405162461bcd60e51b8152602060048201526018602482015277115490cdcc8c4e881a5b9d985b1a59081d1bdad95b88125160421b60448201526064016104e4565b60006001600160a01b0382166109035760405162461bcd60e51b815260206004820152602960248201527f4552433732313a2061646472657373207a65726f206973206e6f7420612076616044820152683634b21037bbb732b960b91b60648201526084016104e4565b506001600160a01b031660009081526005602052604090205490565b610927610c71565b6109316000610fb8565b565b6060600380546103c690611d64565b6000806109508360646105ec565b949350505050565b61096333838361100a565b5050565b6109713383610dd8565b61098d5760405162461bcd60e51b81526004016104e490611df6565b610999848484846110d8565b50505050565b6109a7610c71565b806109ff5760405162461bcd60e51b815260206004820152602260248201527f55524973206c656e677468206d7573742062652067726561746572207468616e604482015261020360f41b60648201526084016104e4565b600a5460005b82811015610a9957610a17858361110b565b610a7982858584818110610a2d57610a2d611e7c565b9050602002810190610a3f9190611e92565b8080601f01602080910402602001604051908101604052809392919081815260200183838082843760009201919091525061112592505050565b81610a8381611ed9565b9250508080610a9190611ed9565b915050610a05565b50600a55505050565b60606103b1826111f0565b610ab5610c71565b600a54610ac2838261110b565b610acc8183611125565b600a8054906000610adc83611ed9565b9190505550505050565b6060600c80546103c690611d64565b6001600160a01b03918216600090815260076020908152604080832093909416825291909152205460ff1690565b610b2b610c71565b6001600160a01b038116610b905760405162461bcd60e51b815260206004820152602660248201527f4f776e61626c653a206e6577206f776e657220697320746865207a65726f206160448201526564647265737360d01b60648201526084016104e4565b61083681610fb8565b60006103b1826112f8565b6000818152600460205260409020546001600160a01b03166108365760405162461bcd60e51b8152602060048201526018602482015277115490cdcc8c4e881a5b9d985b1a59081d1bdad95b88125160421b60448201526064016104e4565b600081815260066020526040902080546001600160a01b0319166001600160a01b0384169081179091558190610c3882610839565b6001600160a01b03167f8c5be1e5ebec7d5bd14f71427d1e84f3dd0314c0f7b2291e5b200ac8c7c3b92560405160405180910390a45050565b6009546001600160a01b031633146109315760405162461bcd60e51b815260206004820181905260248201527f4f776e61626c653a2063616c6c6572206973206e6f7420746865206f776e657260448201526064016104e4565b60646001600160601b0382161115610d385760405162461bcd60e51b815260206004820152602a60248201527f455243323938313a20726f79616c7479206665652077696c6c206578636565646044820152692073616c65507269636560b01b60648201526084016104e4565b6001600160a01b038216610d8e5760405162461bcd60e51b815260206004820152601b60248201527f455243323938313a20496e76616c696420706172616d6574657273000000000060448201526064016104e4565b6040805180820182526001600160a01b0393841681526001600160601b0392831660208083019182526000968752600190529190942093519051909116600160a01b029116179055565b600080610de483610839565b9050806001600160a01b0316846001600160a01b03161480610e0b5750610e0b8185610af5565b806109505750836001600160a01b0316610e2484610449565b6001600160a01b031614949350505050565b826001600160a01b0316610e4982610839565b6001600160a01b031614610e6f5760405162461bcd60e51b81526004016104e490611ef2565b6001600160a01b038216610ed15760405162461bcd60e51b8152602060048201526024808201527f4552433732313a207472616e7366657220746f20746865207a65726f206164646044820152637265737360e01b60648201526084016104e4565b826001600160a01b0316610ee482610839565b6001600160a01b031614610f0a5760405162461bcd60e51b81526004016104e490611ef2565b600081815260066020908152604080832080546001600160a01b03199081169091556001600160a01b0387811680865260058552838620805460001901905590871680865283862080546001019055868652600490945282852080549092168417909155905184937fddf252ad1be2c89b69c2b068fc378daa952ba7f163c4a11628f55a4df523b3ef91a4505050565b600b8054906000610faa83611ed9565b91905055506108368161131d565b600980546001600160a01b038381166001600160a01b0319831681179093556040519116919082907f8be0079c531659141344cd1fd0a4f28419497f9722a3daafe3b4186f6b6457e090600090a35050565b816001600160a01b0316836001600160a01b03160361106b5760405162461bcd60e51b815260206004820152601960248201527f4552433732313a20617070726f766520746f2063616c6c65720000000000000060448201526064016104e4565b6001600160a01b03838116600081815260076020908152604080832094871680845294825291829020805460ff191686151590811790915591519182527f17307eab39ab6107e8899845ad3d59bd9653f200f220920489ca2b5937696c31910160405180910390a3505050565b6110e3848484610e36565b6110ef84848484611337565b6109995760405162461bcd60e51b81526004016104e490611f37565b610963828260405180602001604052806000815250611438565b6000828152600460205260409020546001600160a01b03166111a05760405162461bcd60e51b815260206004820152602e60248201527f45524337323155524953746f726167653a2055524920736574206f66206e6f6e60448201526d32bc34b9ba32b73a103a37b5b2b760911b60648201526084016104e4565b60008281526008602052604090206111b88282611fd7565b506040518281527ff8e1a15aba9398e019f0b49df1a4fde98ee17ae345cb5f6b5e2c27f5033e8ce79060200160405180910390a15050565b60606111fb82610ba4565b6000828152600860205260408120805461121490611d64565b80601f016020809104026020016040519081016040528092919081815260200182805461124090611d64565b801561128d5780601f106112625761010080835404028352916020019161128d565b820191906000526020600020905b81548152906001019060200180831161127057829003601f168201915b5050505050905060006112ab60408051602081019091526000815290565b905080516000036112bd575092915050565b8151156112ef5780826040516020016112d7929190611dc7565b60405160208183030381529060405292505050919050565b6109508461146b565b60006001600160e01b03198216632483248360e11b14806103b157506103b1826114df565b6113268161151f565b600090815260016020526040812055565b60006001600160a01b0384163b1561142d57604051630a85bd0160e11b81526001600160a01b0385169063150b7a029061137b903390899088908890600401612097565b6020604051808303816000875af19250505080156113b6575060408051601f3d908101601f191682019092526113b3918101906120d4565b60015b611413573d8080156113e4576040519150601f19603f3d011682016040523d82523d6000602084013e6113e9565b606091505b50805160000361140b5760405162461bcd60e51b81526004016104e490611f37565b805181602001fd5b6001600160e01b031916630a85bd0160e11b149050610950565b506001949350505050565b611442838361155f565b61144f6000848484611337565b6105855760405162461bcd60e51b81526004016104e490611f37565b606061147682610ba4565b600061148d60408051602081019091526000815290565b905060008151116114ad57604051806020016040528060008152506114d8565b806114b7846116ea565b6040516020016114c8929190611dc7565b6040516020818303038152906040525b9392505050565b60006001600160e01b031982166380ac58cd60e01b148061151057506001600160e01b03198216635b5e139f60e01b145b806103b157506103b18261177d565b611528816117b2565b6000818152600860205260409020805461154190611d64565b1590506108365760008181526008602052604081206108369161191f565b6001600160a01b0382166115b55760405162461bcd60e51b815260206004820181905260248201527f4552433732313a206d696e7420746f20746865207a65726f206164647265737360448201526064016104e4565b6000818152600460205260409020546001600160a01b03161561161a5760405162461bcd60e51b815260206004820152601c60248201527f4552433732313a20746f6b656e20616c7265616479206d696e7465640000000060448201526064016104e4565b6000818152600460205260409020546001600160a01b03161561167f5760405162461bcd60e51b815260206004820152601c60248201527f4552433732313a20746f6b656e20616c7265616479206d696e7465640000000060448201526064016104e4565b6001600160a01b038216600081815260056020908152604080832080546001019055848352600490915280822080546001600160a01b0319168417905551839291907fddf252ad1be2c89b69c2b068fc378daa952ba7f163c4a11628f55a4df523b3ef908290a45050565b606060006116f783611847565b600101905060008167ffffffffffffffff81111561171757611717611b41565b6040519080825280601f01601f191660200182016040528015611741576020820181803683370190505b5090508181016020015b600019016f181899199a1a9b1b9c1cb0b131b232b360811b600a86061a8153600a850494508461174b57509392505050565b60006001600160e01b0319821663152a902d60e11b14806103b157506301ffc9a760e01b6001600160e01b03198316146103b1565b60006117bd82610839565b90506117c882610839565b600083815260066020908152604080832080546001600160a01b03199081169091556001600160a01b0385168085526005845282852080546000190190558785526004909352818420805490911690555192935084927fddf252ad1be2c89b69c2b068fc378daa952ba7f163c4a11628f55a4df523b3ef908390a45050565b60008072184f03e93ff9f4daa797ed6e38ed64bf6a1f0160401b83106118865772184f03e93ff9f4daa797ed6e38ed64bf6a1f0160401b830492506040015b6d04ee2d6d415b85acef810000000083106118b2576d04ee2d6d415b85acef8100000000830492506020015b662386f26fc1000083106118d057662386f26fc10000830492506010015b6305f5e10083106118e8576305f5e100830492506008015b61271083106118fc57612710830492506004015b6064831061190e576064830492506002015b600a83106103b15760010192915050565b50805461192b90611d64565b6000825580601f1061193b575050565b601f01602090049060005260206000209081019061083691905b808211156119695760008155600101611955565b5090565b6001600160e01b03198116811461083657600080fd5b60006020828403121561199557600080fd5b81356114d88161196d565b60005b838110156119bb5781810151838201526020016119a3565b50506000910152565b600081518084526119dc8160208601602086016119a0565b601f01601f19169290920160200192915050565b6020815260006114d860208301846119c4565b600060208284031215611a1557600080fd5b5035919050565b80356001600160a01b0381168114611a3357600080fd5b919050565b60008060408385031215611a4b57600080fd5b611a5483611a1c565b946020939093013593505050565b60008060408385031215611a7557600080fd5b82356001600160601b0381168114611a5457600080fd5b600080600060608486031215611aa157600080fd5b611aaa84611a1c565b9250611ab860208501611a1c565b9150604084013590509250925092565b60008060408385031215611adb57600080fd5b50508035926020909101359150565b600060208284031215611afc57600080fd5b6114d882611a1c565b60008060408385031215611b1857600080fd5b611b2183611a1c565b915060208301358015158114611b3657600080fd5b809150509250929050565b634e487b7160e01b600052604160045260246000fd5b600067ffffffffffffffff80841115611b7257611b72611b41565b604051601f8501601f19908116603f01168101908282118183101715611b9a57611b9a611b41565b81604052809350858152868686011115611bb357600080fd5b858560208301376000602087830101525050509392505050565b60008060008060808587031215611be357600080fd5b611bec85611a1c565b9350611bfa60208601611a1c565b925060408501359150606085013567ffffffffffffffff811115611c1d57600080fd5b8501601f81018713611c2e57600080fd5b611c3d87823560208401611b57565b91505092959194509250565b600080600060408486031215611c5e57600080fd5b611c6784611a1c565b9250602084013567ffffffffffffffff80821115611c8457600080fd5b818601915086601f830112611c9857600080fd5b813581811115611ca757600080fd5b8760208260051b8501011115611cbc57600080fd5b6020830194508093505050509250925092565b60008060408385031215611ce257600080fd5b611ceb83611a1c565b9150602083013567ffffffffffffffff811115611d0757600080fd5b8301601f81018513611d1857600080fd5b611d2785823560208401611b57565b9150509250929050565b60008060408385031215611d4457600080fd5b611d4d83611a1c565b9150611d5b60208401611a1c565b90509250929050565b600181811c90821680611d7857607f821691505b602082108103611d9857634e487b7160e01b600052602260045260246000fd5b50919050565b634e487b7160e01b600052601160045260246000fd5b818103818111156103b1576103b1611d9e565b60008351611dd98184602088016119a0565b835190830190611ded8183602088016119a0565b01949350505050565b6020808252602d908201527f4552433732313a2063616c6c6572206973206e6f7420746f6b656e206f776e6560408201526c1c881bdc88185c1c1c9bdd9959609a1b606082015260800190565b80820281158282048414176103b1576103b1611d9e565b600082611e7757634e487b7160e01b600052601260045260246000fd5b500490565b634e487b7160e01b600052603260045260246000fd5b6000808335601e19843603018112611ea957600080fd5b83018035915067ffffffffffffffff821115611ec457600080fd5b6020019150368190038213156107e657600080fd5b600060018201611eeb57611eeb611d9e565b5060010190565b60208082526025908201527f4552433732313a207472616e736665722066726f6d20696e636f72726563742060408201526437bbb732b960d91b606082015260800190565b60208082526032908201527f4552433732313a207472616e7366657220746f206e6f6e20455243373231526560408201527131b2b4bb32b91034b6b83632b6b2b73a32b960711b606082015260800190565b601f82111561058557600081815260208120601f850160051c81016020861015611fb05750805b601f850160051c820191505b81811015611fcf57828155600101611fbc565b505050505050565b815167ffffffffffffffff811115611ff157611ff1611b41565b61200581611fff8454611d64565b84611f89565b602080601f83116001811461203a57600084156120225750858301515b600019600386901b1c1916600185901b178555611fcf565b600085815260208120601f198616915b828110156120695788860151825594840194600190910190840161204a565b50858210156120875787850151600019600388901b60f8161c191681555b5050505050600190811b01905550565b6001600160a01b03858116825284166020820152604081018390526080606082018190526000906120ca908301846119c4565b9695505050505050565b6000602082840312156120e657600080fd5b81516114d88161196d56fe68747470733a2f2f6f70656e7365612d6372656174757265732d6170692e6865726f6b756170702e636f6d2f6170692f63726561747572652fa26469706673582212204567e10960bf46de3795b7d03c8d9866abbbaf9a6c036c154fcf548be6a13b0464736f6c63430008120033",
  "linkReferences": {},
  "deployedLinkReferences": {}
}